:100000000C942A000C9430040C9459040C9482042F
:100010000C948D060C9464060C943B060C94E90534
:100020000C9412060C94C0050C9401050C942A053E
:100030000C9447000C94B6060C9447000C94DF0611
:100040000C9447000C9447000C9447000C94470014
:100050000C94470011241FBECFE5D8E0DEBFCDBF12
:1000600010E0A0E6B0E0E2E8FEE002C005900D92EC
:10007000A038B107D9F720E0A0E8B0E001C01D9298
:10008000A43AB207E1F70E94D2010C943F070C9406
:10009000000061E08CE00E94850361E08DE00E9439
:1000A000850361E08EE00E94850361E08FE00E949D
:1000B00085030895CF93C82F60E081E00E948503F7
:1000C0006C2F661F6627661F86E00E948503C6FBAD
:1000D000662760F985E00E948503C5FB662760F905
:1000E00084E00E948503C4FB662760F983E00E94D8
:1000F000850361E082E00E9485038FEC97E0019721
:10010000F1F700C0000060E082E00E9485038FEC00
:1001100097E00197F1F700C0000060E081E00E94E5
:100120008503C3FB662760F986E00E948503C2FB56
:10013000662760F985E00E948503C1FB662760F9A8
:1001400084E00E9485036C2F617083E00E94850328
:1001500061E082E00E9485038FEC97E00197F1F760
:1001600000C0000060E082E00E9485038FEC97E011
:100170000197F1F700C00000CF910895CF93C82FE9
:1001800061E081E00E9485036C2F661F6627661F71
:1001900086E00E948503C6FB662760F985E00E9421
:1001A0008503C5FB662760F984E00E948503C4FBD4
:1001B000662760F983E00E94850361E082E00E9487
:1001C00085038FEC97E00197F1F700C0000060E035
:1001D00082E00E9485038FEC97E00197F1F700C061
:1001E000000061E081E00E948503C3FB662760F99F
:1001F00086E00E948503C2FB662760F985E00E94C5
:100200008503C1FB662760F984E00E9485036C2F9B
:10021000617083E00E94850361E082E00E948503B3
:100220008FEC97E00197F1F700C0000060E082E0FA
:100230000E9485038FEC97E00197F1F700C0000062
:10024000CF9108952FE788E391E0215080409040BE
:10025000E1F700C0000082E00E945A0088E20E949C
:100260005A008CE00E945A0081E00E945A008FECF4
:1002700097E00197F1F700C0000086E00E945A0065
:1002800008950E94BE0008950F931F93CF93DF93AC
:10029000CDB7DEB764970FB6F894DEBF0FBECDBF03
:1002A00099232CF491958195910921E001C020E0DA
:1002B00000E010E010C06AE070E00E941C07E1E07E
:1002C000F0E0EC0FFD1FE00FF11F805D8083862FB3
:1002D000972F0F5F1F4F009771F7213051F4E1E026
:1002E000F0E0EC0FFD1FE00FF11F8DE280830F5F48
:1002F0001F4F015011090BC0E1E0F0E0EC0FFD1FB2
:10030000E00FF11F80810E9441010150110911236A
:100310009CF764960FB6F894DEBF0FBECDBFDF9199
:10032000CF911F910F910895CF93DF93C82FD62FB0
:10033000811104C0862F80680E945A00C13021F4C8
:100340008D2F806C0E945A00DF91CF91089580918B
:100350009A0090919B00892B81F486B597B5909374
:100360009F0080939E0081E00E94530581E090E011
:1003700090939B0080939A00089580919A009091A9
:100380009B00019771F486B597B590939D0080937B
:100390009C000E94B70582E090E090939B008093C0
:1003A0009A00089578940E9420040E9422010E94DD
:1003B000490066E081E00E94420262E083E00E9420
:1003C000AB0482E00E94D5040E94F9040E94FD045F
:1003D00062E080E00E945F0587EA91E00E94BB0531
:1003E0000E94B30510929B0010929A001DBC1CBC89
:1003F00080E00E94530561E080E10E9485038AE16C
:100400008A95F1F700C060E080E10E948503809149
:100410009A0090919B000297D0F380919C0090915C
:100420009D0020919E0030919F00821B930B909322
:10043000A3008093A2002091A2003091A300AFE915
:10044000B6E40E943007929582958F7089279F703D
:1004500089279093A1008093A00060E080E00E9433
:1004600094018091A0009091A1000E9444018FE12D
:100470009EE40197F1F700C00000B4CF86B1806818
:1004800086B90895677096B1987F692B66B997B160
:100490009F7D97B9813059F018F0823079F014C0FF
:1004A00087B18F7B87B987B18F7787B90DC087B147
:1004B000806487B987B18F7787B906C087B18064B8
:1004C00087B987B1806887B90E943E02089561307C
:1004D00009F462C020F0623009F4BBC0089588308E
:1004E00090F44AB321E030E0B90102C0660F771FF3
:1004F0008A95E2F7CB01942F982B9ABB9BB38095FA
:1005000089238BBB089598EF980F9830A0F447B3D8
:1005100090E0089721E030E0B90102C0660F771F34
:100520008A95E2F7CB01942F982B97BB98B38095CF
:10053000892388BB089590EF980F9830A0F444B3B6
:1005400090E0409721E030E0B90102C0660F771FCC
:100550008A95E2F7CB01942F982B94BB95B38095A5
:10056000892385BB089598EE980F983008F0CCC089
:1005700041B390E0489721E030E0B90102C0660F36
:10058000771F8A95E2F7CB01942F982B91BB92B3FA
:100590008095892382BB0895883090F44AB321E086
:1005A00030E0B90102C0660F771F8A95E2F7CB01F0
:1005B0008095942F98239ABB9BB389238BBB089576
:1005C00098EF980F9830A0F447B390E0089721E097
:1005D00030E0B90102C0660F771F8A95E2F7CB01C0
:1005E0008095942F982397BB98B3892388BB08954F
:1005F00090EF980F9830A0F444B390E0409721E03A
:1006000030E0B90102C0660F771F8A95E2F7CB018F
:100610008095942F982394BB95B3892385BB089527
:1006200098EE980F983008F06FC041B390E048976B
:1006300021E030E0B90102C0660F771F8A95E2F72A
:10064000CB018095942F982391BB92B3892382BBD1
:100650000895883090F44AB321E030E0B90102C037
:10066000660F771F8A95E2F7CB01962F909594231A
:100670009ABB9BB3892B8BBB089598EF980F98304A
:10068000A0F447B390E0089721E030E0B90102C040
:10069000660F771F8A95E2F7CB01962F90959423EA
:1006A00097BB98B3892B88BB089590EF980F98302B
:1006B000A0F444B390E0409721E030E0B90102C0DB
:1006C000660F771F8A95E2F7CB01962F90959423BA
:1006D00094BB95B3892B85BB089598EE980F9830FD
:1006E00098F441B390E0489721E030E0B90102C0AE
:1006F000660F771F8A95E2F7CB01962F909594238A
:1007000091BB92B3892B82BB0895662309F44CC038
:10071000613009F094C0883068F44BB321E030E0D8
:10072000B90102C0660F771F8A95E2F7CB01842BCF
:100730008BBB089598EF980F983078F448B390E009
:10074000089721E030E0B90102C0660F771F8A9553
:10075000E2F7CB01842B88BB089590EF980F983077
:1007600078F445B390E0409721E030E0B90102C051
:10077000660F771F8A95E2F7CB01842B85BB08951E
:1007800098EE980F983008F05AC042B390E048971E
:1007900021E030E0B90102C0660F771F8A95E2F7C9
:1007A000CB01842B82BB0895883070F44BB321E0D9
:1007B00030E0B90102C0660F771F8A95E2F7CB01DE
:1007C000809584238BBB089598EF980F983080F420
:1007D00048B390E0089721E030E0B90102C0660F0D
:1007E000771F8A95E2F7CB018095842388BB089513
:1007F00090EF980F983080F445B390E0409721E057
:1008000030E0B90102C0660F771F8A95E2F7CB018D
:100810008095842385BB089598EE980F983078F4DE
:1008200042B390E0489721E030E0B90102C0660F82
:10083000771F8A95E2F7CB018095842382BB0895C8
:10084000CF93C0E009C0EC2FF0E0E05AFF4F608189
:100850008C2F0E946702CF5FC032A8F3CF9108951A
:100860001F920F920FB60F9211242F933F934F9325
:100870005F936F937F938F939F93AF93BF93EF9308
:10088000FF93E0918400F0918500309709F009957D
:10089000FF91EF91BF91AF919F918F917F916F9158
:1008A0005F914F913F912F910F900FBE0F901F902E
:1008B00018951F920F920FB60F9211242F933F930A
:1008C0004F935F936F937F938F939F93AF93BF9358
:1008D000EF93FF93E0918200F0918300309709F04D
:1008E0000995FF91EF91BF91AF919F918F917F916A
:1008F0006F915F914F913F912F910F900FBE0F908D
:100900001F9018951F920F920FB60F9211242F93DC
:100910003F934F935F936F937F938F939F93AF9387
:10092000BF93EF93FF93E0918000F09181003097A7
:1009300009F00995FF91EF91BF91AF919F918F9130
:100940007F916F915F914F913F912F910F900FBECB
:100950000F901F901895813069F028F0823089F04F
:100960008330B1F01BC083B78F7B83BF83B7877F92
:1009700083BF14C083B7806483BF83B7877F83BF7F
:100980000DC083B78F7B83BF83B7886083BF06C0EA
:1009900083B7806483BF83B7886083BF83B7887F52
:1009A00083BF83B7682B63BF0895813069F028F057
:1009B000823089F08330B1F0089583B78F7E83BF92
:1009C00083B78F7D83BF089583B7806183BF83B76B
:1009D0008F7D83BF089583B78F7E83BF83B7806287
:1009E00083BF089583B7806183BF83B7806283BF6D
:1009F000089589B7816089BF089589B7826089BFEA
:100A000008951F920F920FB60F9211242F933F93C8
:100A10004F935F936F937F938F939F93AF93BF9306
:100A2000EF93FF93E0919200F0919300309709F0DB
:100A30000995FF91EF91BF91AF919F918F917F9118
:100A40006F915F914F913F912F910F900FBE0F903B
:100A50001F9018951F920F920FB60F9211242F938B
:100A60003F934F935F936F937F938F939F93AF9336
:100A7000BF93EF93FF93E0919400F091950030972E
:100A800009F00995FF91EF91BF91AF919F918F91DF
:100A90007F916F915F914F913F912F910F900FBE7A
:100AA0000F901F901895811104C08EB580648EBD83
:100AB0000895813019F48EB58F7B8EBD08958230F4
:100AC00029F128F4882341F0813099F045C0833022
:100AD00051F18430A9F140C08FB58E7F8FBD8FB5A5
:100AE0008D7F8FBD8EB5877F8EBD8EB58F7E8EBD7F
:100AF00033C08FB58E7F8FBD8FB58D7F8FBD8EB587
:100B000088608EBD8EB580618EBD26C08FB58E7F0C
:100B10008FBD8FB58D7F8FBD8EB588608EBD8EB534
:100B20008F7E8EBD19C08FB58E7F8FBD8FB58260D1
:100B30008FBD8EB588608EBD8EB580618EBD0CC0B8
:100B40008FB581608FBD8FB582608FBD8EB5886097
:100B50008EBD8EB580618EBD8EB5887F8EBD8EB503
:100B6000682B6EBD089589B7806289BF089589B7E3
:100B70008F7D89BF089590938B0080938A0008959C
:100B80001F920F920FB60F9211242F933F934F9302
:100B90005F936F937F938F939F93AF93BF93EF93E5
:100BA000FF93E0919000F0919100309709F0099542
:100BB000FF91EF91BF91AF919F918F917F916F9135
:100BC0005F914F913F912F910F900FBE0F901F900B
:100BD00018951F920F920FB60F9211242F933F93E7
:100BE0004F935F936F937F938F939F93AF93BF9335
:100BF000EF93FF93E0918E00F0918F00309709F012
:100C00000995FF91EF91BF91AF919F918F917F9146
:100C10006F915F914F913F912F910F900FBE0F9069
:100C20001F9018951F920F920FB60F9211242F93B9
:100C30003F934F935F936F937F938F939F93AF9364
:100C4000BF93EF93FF93E0918C00F0918D0030976C
:100C500009F00995FF91EF91BF91AF919F918F910D
:100C60007F916F915F914F913F912F910F900FBEA8
:100C70000F901F9018951F920F920FB60F9211248C
:100C80002F933F934F935F936F937F938F939F9394
:100C9000AF93BF93EF93FF93E0918A00F0918B00A5
:100CA000309709F00995FF91EF91BF91AF919F9116
:100CB0008F917F916F915F914F913F912F910F9005
:100CC0000FBE0F901F9018951F920F920FB60F92A4
:100CD00011242F933F934F935F936F937F938F9341
:100CE0009F93AF93BF93EF93FF93E0918800F091B0
:100CF0008900309709F00995FF91EF91BF91AF916D
:100D00009F918F917F916F915F914F913F912F9123
:100D10000F900FBE0F901F9018951F920F920FB655
:100D20000F9211242F933F934F935F936F937F9371
:100D30008F939F93AF93BF93EF93FF93E0918600C0
:100D4000F0918700309709F00995FF91EF91BF91DD
:100D5000AF919F918F917F916F915F914F913F9153
:100D60002F910F900FBE0F901F9018951F920F920A
:100D70000FB60F9211242F933F934F935F936F936E
:100D80007F938F939F93AF93BF93EF93FF93E091E4
:100D90009800F0919900309709F00995FF91EF9133
:100DA000BF91AF919F918F917F916F915F914F9183
:100DB0003F912F910F900FBE0F901F9018951F928B
:100DC0000F920FB60F9211242F933F934F935F937F
:100DD0006F937F938F939F93AF93BF93EF93FF9303
:100DE000E0919600F0919700309709F00995FF91F6
:100DF000EF91BF91AF919F918F917F916F915F9193
:100E00004F913F912F910F900FBE0F901F9018950B
:100E1000AA1BBB1B51E107C0AA1FBB1FA617B70720
:100E200010F0A61BB70B881F991F5A95A9F780953C
:100E30009095BC01CD01089597FB072E16F4009400
:100E400007D077FD09D00E94080707FC05D03EF4C3
:100E5000909581959F4F0895709561957F4F089566
:100E6000A29FB001B39FC001A39F700D811D1124EB
:100E7000911DB29F700D811D1124911D0895F8944C
:020E8000FFCFA2
:100E8200010000000000000100000000000000005E
:100E92000000000000000000020201020202010242
:00000001FF
